:020000041000EA
:1000000000B5324B212058609868022188439860DF
:10001000D860186158612E4B002199600221596106
:100020000121F02299502B49196001219960352056
:1000300000F044F80222904214D00621196600F024
:1000400034F8196E01211966002018661A6600F04E
:100050002CF8196E196E196E052000F02FF8012189
:100060000842F9D1002199601B49196000215960AB
:100070001A491B48016001219960EB211966A021F2
:10008000196600F012F800219960164914480160C1
:100090000121996001BC002800D000471248134993
:1000A000086003C880F30888084703B5996A0420EC
:1000B0000142FBD001200142F8D103BD02B5186610
:1000C0001866FFF7F2FF186E186E02BD00000240BE
:1000D000000000180000070000035F00212200005C
:1000E000F4000018222000A00001001008ED00E03C
:1000F00000000000000000000000000074B24E7A12
:1001000000200420F7010010CB010010CD010010E9
:10011000C9010010C9010010C9010010C901001077
:10012000C9010010C9010010C9010010CF01001061
:10013000C9010010C9010010D1010010D301001045
:10014000C1010010C1010010C1010010C101001067
:10015000C1010010C1010010C1010010C101001057
:10016000C1010010C1010010C1010010C101001047
:10017000C1010010C1010010C1010010C101001037
:10018000C1010010C1010010C1010010C101001027
:10019000C1010010C1010010C1010010C101001017
:1001A000C1010010C1010010C1010010C101001007
:1001B000C1010010C1010010C1010010C1010010F7
:1001C000EFF30580103800BE00BE00BE00BE00BECA
:1001D00000BE00BEF2EB8871641800108018001099
:1001E0003802001090A31AE700201E49086006C8D4
:1001F00081F3088810471C480068002801D00020BF
:10020000F3E70DA40ECC002902D000F012F8F9E7B4
:100210001649174A002000E001C19142FCD115495E
:100220008847154988471549884700BEFDE701C939
:1002300001C29A42FBD3704780180010C000002012
:1002400028020020E819001000000420000004200B
:10025000E819001000100420001004200000000025
:100260007047000008ED00E0000000D028020020E8
:10027000F80500203114001081020010291400102C
:1002800070B5D024802519202406AD0400F00CF8A8
:100290006562FA20656100F0A5FBFA20A561800087
:1002A00000F0A0FBF5E7C0460123D02283401206F0
:1002B00093629361084A83009A1811684022514062
:1002C00080320A400549C0005B181A60044BC01810
:1002D000052343607047C04604C0014004D001407C
:1002E000004001400FB400B5084883B001F0CAF9DE
:1002F000049B002B07D005A91800019101F078F8A4
:10030000034801F0BFF9012001F08AF88C170010B2
:10031000F017001070B58C461600EFF3108472B61B
:100320000F490B68002BFCD0BFF35F8F6346DB08DF
:10033000C5180722C05C63461A40012393401A0087
:100340000240034207D118432870BFF35F8F0A6051
:1003500084F3108870BD61463000FFF7C3FFC046CC
:100360002C0100D0044A1078431CDBB2172B00D9B3
:10037000102313707047C046D80100200021044BA1
:10038000044ABFF35F8F02C39342FAD17047C0465D
:10039000000100D0800100D0084B094A1360094ACF
:1003A0001360094A1360094A1360094A1360094A35
:1003B0001360094A1360094A136070478080808087
:1003C00000E400E004E400E008E400E00CE400E005
:1003D00010E400E014E400E018E400E01CE400E0B5
:1003E0001F2318401E3B8340002905D0C021044A2A
:1003F0004900535013607047802201498B50FAE73F
:1004000000E100E010B5EFF3108C72B60F4A1368EC
:10041000002BFCD0BFF35F8F0D4B10309B6880002A
:100420001B580C4A934201D099420CD1084B9B684F
:100430001950BFF35F8FBFF35F8F0022034B1A6029
:100440008CF3108810BD00F0A1FDC046240100D03F
:1004500000ED00E0C1010010024BC91889000160E5
:100460007047C0464000003470B5114C114DAC428D
:100470000FD2FF262368002B0CD0FFF773FF01007B
:100480002000FFF7E9FFA680BFF35F8F0834AC427E
:10049000F0D370BDFFF766FF01002000FFF7DCFF1F
:1004A0002671BFF35F8F0834AC42E3D3F1E7C04657
:1004B00020020020280200200A4B1968EFF3108068
:1004C00072B60A68002AFCD0BFF35F8F1B68BFF3C7
:1004D0005F8F00221A6080F3108840BF0020002147
:1004E0007047C046F4050020F0B5DE4657464E463C
:1004F0004546E0B585B0EFF3058303221A40B34BC0
:1005000091005F58012393409B4602925A468846C9
:10051000AF4B1A60AF4B03935B46AF48436308236E
:10052000FE5E002E37DABB881BB2002B00DBA4E096
:10053000BB79002B00D0E5E00823F95E002920DB21
:100540004B007A695B18DB00D3189D68DC686B1C74
:1005500000D104E1A04801004144826A0B69AE1A4F
:100560009B1A9E4215D30123026A029883401A42C5
:100570000FD0994800F054FB8C4202DCCCD185426C
:10058000CAD940BF05B0F0BCBB46B246A946A0469A
:10059000F0BD0D61EDE77A69730091469B19DB00B0
:1005A00099444B469C68DD6800F03AFB8D42BADC0A
:1005B00000D1F6E0002D00DADBE04A464B465269F6
:1005C0001B699246039A934200D1CCE04A46082127
:1005D000785E52880004514610439847009001917C
:1005E0000099019A0B00134300D1C2E013000A00E6
:1005F000002B00DBD9E020002900801A99414B46EE
:100600009860D96000229B5E002B00DA8BE75D00CA
:100610007C69EA18D200A21800949468D268A246B5
:100620008A4200DD7FE702D1844200D97BE70824BB
:10063000A4463B81BC44009C00972F006546B4460D
:100640003E0006E05E00F218D200A2189768D26859
:10065000BA468A4207DC00D1B4E0F318DB00E518A3
:10066000E35E002BEEDA66464A46009F13802E803A
:10067000BB881BB2002B00DA5AE73A69EFF310810E
:1006800072B61368002BFCD0BFF35F8F0123BE88C6
:100690005B42BB8036B23B69BFF35F8F00221A60BA
:1006A00081F31088002E00DA42E73B0008333A005D
:1006B00099467D6973009B190824115FDB00484649
:1006C000EB18002913DB9C680093A446DC6806E065
:1006D000A34240D00023F95E3800002906DB4F001A
:1006E0007F18FF00EF19FB68A342F1DD009B068035
:1006F00000201E5E1980002EDCDA1700BB79002B6B
:1007000000D119E70023BB710823F95E4B1C00D10F
:1007100037E73D000835AC467C6903E084464B1C56
:1007200000D109E74B005B18DB00E0180A00E15E2E
:1007300043881BB2002BF1DA01256D42EE1785606C
:10074000C66008257B5F9342E9D0634619803B89E8
:1007500003803A81E3E7BB686345BBD9C6E7631C06
:1007600000D0F7E605E7534650461B699847002836
:1007700023D14B461B883A693B81EFF3108372B655
:1007800011680029FCD0BFF35F8F49467A880A8040
:100790003A697E80BFF35F8F0021116083F3108878
:1007A000C1E6844200D805E7BDE60B4800F038FA00
:1007B000009B019CC018614121E753460CCB00927D
:1007C00001930DE7824500D847E74CE7E00500209C
:1007D0003C700540E90400100040054070B52D4C08
:1007E0002569002D04D00A212B48FFF735FE70BD86
:1007F0002A4E0321294800F009FAE660FFF7B2FD0E
:10080000274B0322C018D02322701B061B6801212E
:100810006370244B8000A3600F232061022063805B
:1008200063694942A18019800231198647311D83CD
:10083000585218315A5275325C3999521832013176
:1008400099521832013199521832013199520835B2
:1008500018329D5202311832995218320131995290
:10086000183201319952183201319952183201313E
:1008700099521832013199520B4B0C49DC6001300E
:100880003562FFF7BFFD01210320FFF7A9FD084BEB
:100890001D60A8E7E8010020F405002000400540A5
:1008A00040000034FFFF1000E0050020E9040010C4
:1008B0003860054070B582B0009201930100026972
:1008C000EFF3108472B61368002BFCD0BFF35F8F78
:1008D0000223C85E0D6900283FDB4A694300160009
:1008E0001B18DB00D218F35A4B80BFF35F8F002335
:1008F0002B6084F31088069B1361079B5361009B58
:10090000019C9360D460538801335B045B0C1D1C15
:10091000002B20D0ACB20304558023430D69EFF3C4
:10092000108C72B62C68002CFCD0BFF35F8F8C88C3
:10093000148088800A69BFF35F8F002010608CF3F9
:1009400010880A7801309040CA680849521810602F
:10095000180002B070BD0125DCE7BFF35F8F0023F4
:100960002B6084F31088013BF2E7C0463C20000076
:1009700010B543890A1493421ADD53009B1842694B
:10098000DB00D3180469EFF3108C72B62268002ADA
:10099000FCD0BFF35F8F5A88090494B2090C8A42D5
:1009A00008D00369BFF35F8F00221A608CF31088B0
:1009B000002010BD094A22435A8001230269837135
:1009C000BFF35F8F002111608CF310880278044917
:1009D0009340C268012052181360EAE70080FFFFCD
:1009E0003C200000F0B5C64600B582B0040000F01F
:1009F0001FF9FA2206000F002000002300219200B8
:100A000000F07CFC8019794104000D1E02DA0124FB
:100A10002E4D644206267642F71736196F41AF42D3
:100A200014D811D000F004F932003B00121A8B41A7
:100A3000002B15DC002B46D02000290000F002F925
:100A400002B080BCB846F0BDA642EBD90026002714
:100A500000F0EEF832003B00121A8B41002BE9DD6A
:100A600000F0E6F832003B00121A8B41002B0ADB43
:100A700000230193164B3200009316483B00FFF70A
:100A800019FF0130D8D000233900B0469C46124AE5
:100A90001248536A994204D8966A4645CCD2994284
:100AA000CAD10668EFF3108772B63368002BFCD00A
:100AB000BFF35F8F0368BFF35F8F66461E6087F3E7
:100AC000108820BFE5E7002AB6D0C9E7FFFFFF7F07
:100AD000B9040010E801002000400540F4050020A2
:100AE000F0B5CE46474680B504000D0085B0EFF363
:100AF00005838946002B32D1404E336883422AD089
:100B00003F4FFB683A7898461800039200F088F847
:100B1000039A131D42469B009B5822001B1A9C46B9
:100B20002B00121A8B411900002310008B4225DC88
:100B300022D020BF334B586A48452BD3401B9A6ABA
:100B4000431E98410023A2425B41184305B0C0BC3C
:100B5000B946B046F0BD73688B42D1D1E9E7294967
:100B600000204B6AAB42F1D38A6A5B1B591E8B4152
:100B7000A24240411843E9E78445DAD900F058F829
:100B800022002B00121A8B41002B05DA1D4A536AF2
:100B90004B4529D20020D9E7002301931A4B2200AC
:100BA000009338002B00FFF785FE0028EEDD154B83
:100BB00030C65A6A4A4515D39B6AA34210D3010036
:100BC0003800FFF7D5FE0F4A0020536A4B45BDD3CE
:100BD000926A5B1B591E8B41A24240411843B5E704
:100BE0004A45ECD120BFEAE70020926A5B1BA24293
:100BF00040415A1E93411843A8E7C046E001002037
:100C0000E801002000400540B904001010B5024A78
:100C10000248FFF77FFB10BD9C170010A8050020BD
:100C20000300416A0A00986A596A8A42FAD17047F9
:100C3000034B596A0A00986A596A9142FAD170477F
:100C400000400540064A536A9942FCD807D1044B3C
:100C500002E05A6A914202D19A6A9042F9D87047EA
:100C600000400540F8B5DE464E4645465746E0B5DD
:100C700005008B4618000A99914600F0B1FA0A9BCC
:100C80006C001E026419304BA400E41863688046AF
:100C90009E4200D966602F1FFBB29A46012B2FD9C6
:100CA000C0238022294FAD009B0179591201E3181E
:100CB0001A6000291BD14B4622685B015340E02299
:100CC000134080225201A21813605346012B2FD9E2
:100CD000802380229B01E31812011A60434666605C
:100CE0007B51F0BCBB46B246A946A046F8BD786928
:100CF00000F076FA013043001B18033BFDD2DAE71F
:100D00005B46012BCCD1C02303229B01E3181A6060
:100D1000023AA3681A42FCD04A46236852015A405C
:100D2000E023134080225201A218084F1360AD0047
:100D300058460323216841400B4013600122824042
:100D4000A3681A42FCD0C3E700800040AC05002035
:100D5000F0B5D6464F464646440098462418324BD6
:100D6000A400E41863688A469146C0B5FF2B02D8F8
:100D700080235B006360061FF6B2012E2FD9C023CB
:100D800080222A4F85009B0179591201E3181A60CD
:100D900000291BD14B4622685B015340E0221340DF
:100DA00080225201A2181360012E30D980238022A4
:100DB0009B01E31812011A6080235B0063604346C5
:100DC0007B51E0BCBA46B146A846F0BD786900F058
:100DD00007FA013043001B18033BFDD2DAE7534604
:100DE000012BCCD1C02303229B01E3181A60023AE5
:100DF000A3681A42FCD04A46236852015A40E023B5
:100E0000134080225201A218084F136085005046FB
:100E10000323216841400B40136001228240A368F4
:100E20001A42FCD0C2E7C04600800040AC0500205A
:100E3000014B8000C0587047AC050020F0B5C64695
:100E4000040000B52348160098460D0000F0C8F9CC
:100E50000100300000F0C4F94346069A1B04120357
:100E600013439C4623680600002B22DB1A4B1B48C9
:100E7000E218531E9A4180235242120B9B01120327
:100E8000D218174B1A60174B1A60130001688B4376
:100E9000FBD12122144B2560E318A6601A6022685A
:100EA000002AFCDA6246E26008221A6080BCB8467A
:100EB000F0BD3F2322681340AB42D7D1A3681B0586
:100EC0001B0D8342D2D1EE22E368D2021340634568
:100ED000CCD1EBE7001BB7000040FDBF08C00040CD
:100EE00000E0004000F00040043000008023024A8F
:100EF0009B000B43D362704700800540002310B570
:100F00000100988A1B8B984710BDC046162310B568
:100F1000010018885B88984710BDC046F8B5474661
:100F2000CE4680B50F1E18D0142399460433040012
:100F30000025012698464B461888434621681B88A1
:100F4000984701C4431E984101350640AF42F2D193
:100F50003000C0BCB946B046F8BD0126F8E7C0462F
:100F6000AA23064A1B0113608D235B00D36004494A
:100F7000044B19605368002BFCDA704700400240B4
:100F800000B0FA00006002407047C04610B501484A
:100F9000FFF7A8F9C017001070B5074D074EB5420E
:100FA00009D20024013E761BB608013608CD013473
:100FB0009847B442FAD170BD501700108C1700103A
:100FC000054B064A06491A60064A074B1A6010008C
:100FD0000B689843FBD1704700E00040BFCDFBFE9B
:100FE00008C00040FE7F3C0000F00040044BDB6C7A
:100FF000002B03D18022034BD2021A607047C046F7
:10100000000011504C201150044A054B1A60054A4B
:101010001368DB018033FBD17047C046FFFFFF013F
:1010200000F0004008C000404022034B9A675A6716
:101030001A67DA667047C04600F0014010B5FFF746
:101040009DF910BD70B52749274E284D761AB40872
:101050002200302C00D930222800920000F0BAF98A
:101060002F2C3BD823002A3B214A052B1BD93020AB
:10107000AE197107001B2600CB0F002902DAA10070
:101080006A50661CC01AE3189B004108EB18C9009F
:10109000C9181A605A6008338B42FAD101230342FF
:1010A0001CD098438419A300EA50631C2F2C15D040
:1010B0009B00EA50A31C2E2C10D09B00EA50E31C8E
:1010C0002D2C0BD09B00EA50231D2C2C06D09B000E
:1010D000EA50631D2B2C01D09B00EA50054B9D600C
:1010E00070BDC04600010010C001001000000020CB
:1010F000C101001000ED00E0002310B5294C82B0C2
:10110000A367FFF72DFF0122274B1A60636C012BA9
:10111000FCD10322254B1A60224A936B012BFCD190
:10112000013300930121224A22480433FFF786FE4F
:10113000052301210093204A2048FFF77FFE00226B
:10114000022104201E4BFFF703FE0022012105208F
:101150001C4BFFF7FDFD0022002107201A4BFFF773
:10116000F7FD002200210820174BFFF7F1FD802337
:10117000DB000093002200210920134BFFF772FDD2
:101180000022104B00210620FFF7E2FD0420FFF7AC
:101190004FFE0E4900F024F801000020FFF7A6FEE4
:1011A00002B010BD008000403CB0004030B00040B4
:1011B000002F685900800240008C864700C0024022
:1011C000001BB70040597307006CDC0240420F005F
:1011D00001480421014B1847000200201D0F001098
:1011E000114A936F9B0813D210665166002905D0EF
:1011F000FFE7FFE7FFE7516F106F704704B5002866
:1012000001D00020C04300F09BFA002104BDC0467D
:10121000F0B5146E556E576F166FFFF7E5FF146645
:10122000556657671667F0BD000000D0132370B5F0
:101230001D78012D19D014DD1F48FFF767FE060049
:101240001E48FFF763FE1E4C80223100200000F094
:10125000C1F8022D2DD01B48FFF750FE1A4B186025
:1012600070BD1A4B164CA364F5E7184B144C236061
:101270006360A360E36023616361A361E361236250
:101280006362A362E36223636363A363E363236430
:101290006364A364E36423656365A365E365236610
:1012A0006366A366E36623676367A367E367A36474
:1012B000D1E7064BA364CEE7534400005346000039
:1012C000A80300204C330000F0050020D1120010CC
:1012D00007B5604601880A0A0230DF2AFAD1C9B28E
:1012E000820804D3028840880004104300E00068AC
:1012F000014A5050039007BDA803002051434343C7
:10130000C9188C46110C83B24B4310B4040C6143D2
:1013100092B280B2504362431C041B0C001910BCF3
:1013200059411304120CC018514161447047000028
:10133000132310B51C781348FFF7E8FD012C0BD0E0
:1013400004DD01008022104800F044F80F48FFF748
:10135000D5FD0F4B186010BD0B4C0100542220002E
:1013600000F038F80B4B6365A365E365236663669D
:10137000A366E36623676367A367E3672362E361AA
:10138000E4E7C04653460000A80400204C330000A8
:10139000F00500209913001007B5604601880A0A7D
:1013A0000230DF2AFAD1C9B2820804D30288408809
:1013B0000004104300E00068014A5050039007BD4C
:1013C000A804002001480421014B18471002002006
:1013D0001D0F0010014B5B68184700001002002031
:1013E00010B5002800D110BD00F002F9FBE7C0469F
:1013F00010B5094A0300146884B0002C08D00122FB
:1014000000910648524203A9A047012004B010BD34
:1014100000F038F90020F9E7DC050020E1130010A6
:1014200000BEFDE77047C04610B5FFF7F9FFC046A4
:1014300070B5FFF7B1FD074D074EB54209D2002444
:10144000013E761BB608013608CD01349847B442F8
:10145000FAD170BD8C1700108C170010030010B566
:10146000080011001B68984710BDC046F8B5437DC1
:1014700007000D001600002B38D0002A1ADD0B786B
:101480000A2B18D00020012E09D0012421006B5C0A
:1014900001340A2B1AD0B442F8D1864203DD311A46
:1014A0003B6828189847AD19013D2B780D3B5A42EF
:1014B00053413B75F8BD037D002BE3D102210E485B
:1014C0003B689847012EEED00120DEE76B1E5B5C87
:1014D0000D2BE0D0884203DA091A3B682818984798
:1014E000054802213B6898472000D4E703681100B3
:1014F00028009847DEE7C04660180010F0B5464661
:10150000D6464F46C0B582B090461C0006000D007E
:10151000FFF78EFB00232F4A12184B41002B02DAF3
:1015200001222D4B52422D4908008A4600F0F8F85E
:1015300081466B1C03D1300000F0C2F80500002C7E
:1015400027D0274F274B1C68002C18D04346002B70
:1015500021D1254B984602E02469002C0FD0236846
:10156000002BF9D043461B68002B01D09C42F3D1DD
:1015700020002A003100B8472469002CEFD14B46E7
:10158000002B23D1280002B0E0BCBA46B146A846E1
:10159000F0BD164FD6E7144B984602E02469002CA4
:1015A000EDD02368002BF9D043461B68002B01D0F7
:1015B000A342F3D12A0031002000B8476B460A222B
:1015C0002000DA71D91D093AB847E7E7504600F024
:1015D000AFF8D7E740420F00FFFFFF7F2002002057
:1015E0006D140010D4050020D80500205D140010F3
:1015F000F0B5CE46474680B583B06B460600DD1D8C
:101600002870FFF715FB0023194A12184B41002BD5
:1016100002DA0122174B524217490800894600F0AE
:101620007FF8164B80461C68002C14D0144F02E043
:101630002469002C0FD02368002BF9D03B68002BC5
:1016400001D09C42F4D1200001222900FFF70EFFB7
:101650002469002CEFD14346002B05D1300003B0A4
:10166000C0BCB946B046F0BD484600F061F8F5E7A9
:1016700040420F00FFFFFF7F20020020D405002022
:10168000D805002070B5040000F01AF8012301000D
:10169000050001222000FFF731FF084B1C68002CD9
:1016A00006D06368002B05D098472469002CF8D138
:1016B000280070BD2469002CF3D1F9E7D40500207F
:1016C000030084469B070BD00300032102E0013393
:1016D0000B4206D01A78002AF9D16246981A704750
:1016E000030019680C4A0D488A188A4302420FD138
:1016F0005968094A04338A188A43024208D1596852
:10170000054A04338A188A430242F1D000E00133CB
:101710001A78002AFBD1E0E7FFFEFEFE8080808081
:1017200001B40248844601BC604700BF6501002047
:1017300001B40248844601BC604700BF9901002003
:1017400001B40248844601BC604700BFC1010020CB
:10175000C10F0010ED0F0010D1110010C5130010C3
:101760002D12001031130010F91000100910001094
:10177000291000103D1000106904001045100010E1
:0C178000DD070010890F00109903001015
:10178C000A2A2A2A2050414E4943202A2A2A0A0092
:10179C00486172647761726520616C61726D20259D
:1017AC006420616C726561647920636C61696D653C
:1017BC006400000048617264206173736572740088
:1017CC0052656C6561736500626F6F74325F77325E
:1017DC003571303830000000322E332E30000000CE
:1017EC007069636F000000003131325F626C696EAA
:1017FC006B000000536570202035203230323600EB
:10180C0006005250D3F07542CC170010060052500F
:10181C00E182887FD417001006005250ABB360539E
:10182C00E417001006005250BBFF3CB6EC1700103A
:10183C0006005250861C0302F4170010060052508A
:10184C005422A29D0018001005005250DE65F46869
:08185C00E81900100D0A00005C
:101864000C1800101818001024180010301800105C
:0C1874003C180010481800105418001018
:1018800003000068EFF3108C72B60268002AFCD0E7
:10189000BFF35F8F04229A56002A0BDB002900D089
:1018A0000A6000201B68BFF35F8F00221A608CF370
:1018B00010887047D0221206126801201A71F1E7D1
:1018C000F0B51F00D023C6461B061B680400160097
:1018D0009846002500B50AE0BFF35F8F156081F3DD
:1018E00010883000390000F04FF8002818D1226825
:1018F000EFF3108172B61368002BFCD0BFF35F8F3B
:10190000237922687F2BE7D943462371BFF35F8F8A
:101910000023136081F31088012080BCB846F0BD1D
:101920000020FAE770B582B001A9060014001D007E
:10193000FFF7A6FF002807D1D0221206019B1278DC
:101940005BB252B2934201D102B070BD22002B00B3
:101950003000FFF7B5FFF7E70268EFF3108172B6CA
:101960001368002BFCD0BFF35F8FFF230371036864
:10197000BFF35F8F00221A6081F3108840BF704769
:101980007047C0460000000001B40248844601BC14
:10199000604700BFE10A00101000000000000000D6
:1019A000FFFFFFFFFFFFFF7F0000000000000000BF
:1019B00000000000000000000000000028020020DD
:1019C000503300004C330000543300005233000009
:1019D0004D5300004D4300005334000043340000D9
:0819E0000000000000000000FF
:04000005100001E9FD
:00000001FF
